:100000000C9472000C94B7010C9484000C9484003E
:100010000C9484000C9484000C9484000C94840050
:100020000C9484000C9484000C9484000C94840040
:100030000C9484000C9484000C9484000C94840030
:100040000C9484000C94E4000C9484000C948400C0
:100050000C9484000C9484000C9484000C94840010
:100060000C9484000C9484000C9484000C94840000
:100070000C9484000C9484000C9484000C948400F0
:100080000C9420010C9484000C9484000C94840043
:100090000C9484000C9484000C9484000C948400D0
:1000A0000C9484000C9484000C9484000C948400C0
:1000B0000C9484000C9484000C9484000C948400B0
:1000C0000C9484000C9484000C9484000C948400A0
:1000D0000C9484000C9484000C9484000C94840090
:1000E0000C94840011241FBECFEFD1E2DEBFCDBF40
:1000F00022E0A0E0B2E001C01D92A431B207E1F716
:100100000E945C010C94A7020C94000086230895C1
:10011000F894109280008DE08093810082E08093BB
:100120006F0022E13AE73093890020938800109213
:10013000900099E0909391008093710080E49FE19A
:100140009093990080939800789480E090E00895CF
:10015000CF92DF92EF92FF920F931F936B017C017E
:1001600000910402109105022091060230910702CD
:1001700040910402509105026091060270910702BD
:10018000D901C8018C0D9D1DAE1DBF1D4817590713
:100190006A077B0768F380E090E01F910F91FF9062
:1001A000EF90DF90CF90089580910002909101022E
:1001B000A0910202B0910302089590930F028093E0
:1001C0000E0280E090E008951F920F920FB60F92FA
:1001D00011242F933F934F935F936F937F938F934C
:1001E0009F93AF93BF93EF93FF93809104029091FD
:1001F0000502A0910602B09107020196A11DB11D52
:100200008093040290930502A0930602B093070224
:10021000E0910C02F0910D02309709F00995FF91E1
:10022000EF91BF91AF919F918F917F916F915F916E
:100230004F913F912F910F900FBE0F901F901895E7
:100240001F920F920FB60F9211242F933F934F934B
:100250005F936F937F938F939F93AF93BF93EF932E
:10026000FF938091000290910102A0910202B0914F
:1002700003020196A11DB11D80930002909301021B
:10028000A0930202B0930302E0910E02F0910F02DC
:10029000309709F00995FF91EF91BF91AF919F9130
:1002A0008F917F916F915F914F913F912F910F901F
:1002B0000FBE0F901F9018950E948800CBE0D1E0F0
:1002C000888181608883888161E00E94860090E057
:1002D000A0E0B0E08093080290930902A0930A0284
:1002E000B0930B0288818E7F8883888161E00E94B1
:1002F000860090E0A0E0B0E08093080290930902AD
:10030000A0930A02B0930B020E94A7010E94AD01C4
:100310008BE292E00E94DD000E94EC0162E070E05E
:1003200080E090E00E94A8000E94F00180910B0103
:1003300061E00E94860090E0A0E0B0E080930802B7
:1003400090930902A0930A02B0930B02EFCFEAE068
:10035000F1E0808182608083089584B1806284B9F5
:1003600084B1806884B985B1806285B908951F928F
:100370000F920FB60F9211242F933F934F935F93D9
:100380006F937F938F939F93AF93BF93EF93FF935D
:10039000E0911202F0911302309709F00995FF9154
:1003A000EF91BF91AF919F918F917F916F915F91ED
:1003B0004F913F912F910F900FBE0F901F90189566
:1003C000EBE0F1E08081826080830895EBE0F1E072
:1003D00080818D7F8083089585B1806885B9089577
:1003E00085B18F7785B908950F931F93CF9306E05A
:1003F00011E0F801808164E00E948600C82FF801B6
:10040000808160E40E948600C80F83B168E00E948A
:100410008600C80FF801808160E80E948600C80F3E
:10042000F801808168E00E948600C80F83B160E80F
:100430000E9486008C0F39F081E090E090931102C9
:100440008093100204C01092110210921002CF91FA
:100450001F910F9108950E94F401809110029091D4
:100460001102019781F50E94D40064EF71E00E94AF
:100470007F0260FD0BC00E94D40064EF71E00E9417
:100480007F02892B19F40E94E0011DC00E94D40054
:1004900064EF71E00E947F0261707078772334F41A
:1004A000615071096E6F7F6F6F5F7F4F61307105B3
:1004B00051F40E94D40064EF71E00E947F02892B06
:1004C00011F40E94E6018091100290911102892B93
:1004D000A9F40E94D40060E177E20E947F02892B98
:1004E00019F40E94E00108950E94D40064E079E2CA
:1004F0000E947F02892B11F40E94E601089597FB68
:10050000072E16F4009407D077FD09D00E949302BD
:1005100007FC05D03EF4909581959F4F0895709506
:1005200061957F4F0895AA1BBB1B51E107C0AA1F0D
:10053000BB1FA617B70710F0A61BB70B881F991F84
:100540005A95A9F780959095BC01CD010895F8942E
:02055000FFCFDB
:00000001FF
