S00F000050617274655F332E7372656387
S11300000C9472000C9459010C9484000C94840098
S11300100C9484000C9484000C9484000C9484004C
S11300200C9484000C9484000C9484000C9484003C
S11300300C9484000C9484000C9484000C9484002C
S11300400C9484000C94A8000C9484000C948400F8
S11300500C9484000C9484000C9484000C9484000C
S11300600C9484000C9484000C9484000C948400FC
S11300700C9484000C9484000C9484000C948400EC
S11300800C94E4000C9484000C9484000C9484007C
S11300900C9484000C9484000C9484000C948400CC
S11300A00C9484000C9484000C9484000C948400BC
S11300B00C9484000C9484000C9484000C948400AC
S11300C00C9484000C9484000C9484000C9484009C
S11300D00C9484000C9484000C9484000C9484008C
S11300E00C94840011241FBECFEFD1E2DEBFCDBF3C
S11300F022E0A0E0B2E001C01D92A231B207E1F714
S11301000E9420010C9482010C940000862308951F
S1130110F894109280008DE08093810082E08093B7
S11301206F0022E13AE7309389002093880010920F
S1130130900099E0909391008093710080E49FE196
S11301409093990080939800789480E090E00895CB
S11301501F920F920FB60F9211242F933F934F9338
S11301605F936F937F938F939F93AF93BF93EF931B
S1130170FF938091040290910502A0910602B09130
S113018007020196A11DB11D8093040290930502FC
S1130190A0930602B0930702E0910C02F0910D02C5
S11301A0309709F00995FF91EF91BF91AF919F911D
S11301B08F917F916F915F914F913F912F910F900C
S11301C00FBE0F901F9018951F920F920FB60F92AB
S11301D011242F933F934F935F936F937F938F9348
S11301E09F93AF93BF93EF93FF93809100029091FD
S11301F00102A0910202B09103020196A11DB11D5A
S11302008093000290930102A0930202B093030230
S1130210E0910E02F0910F02309709F00995FF91D9
S1130220EF91BF91AF919F918F917F916F915F916A
S11302304F913F912F910F900FBE0F901F901895E3
S11302400E948800CBE0D1E0888181608883888126
S113025061E00E94860090E0A0E0B0E08093080294
S113026090930902A0930A02B0930B0288818E7FB7
S11302708883888161E00E94860090E0A0E0B0E07D
S11302808093080290930902A0930A02B0930B0290
S113029080910B0161E00E94860090E0A0E0B0E054
S11302A08093080290930902A0930A02B0930B0270
S11302B0EFCF1F920F920FB60F9211242F933F93FB
S11302C04F935F936F937F938F939F93AF93BF935A
S11302D0EF93FF93E0911002F0911102309709F02F
S11302E00995FF91EF91BF91AF919F918F917F916C
S11302F06F915F914F913F912F910F900FBE0F908F
S10B03001F901895F894FFCF3B
S9030000FC
