S01200004C6176616465726F5F312E7372656354
S11300000C9472000C94AB050C9432030C944603CC
S11300100C94C2040C948F000C948F000C948F00E9
S11300200C948F000C947C010C948F000C948F0022
S11300300C948F000C948F000C948F000C948F0000
S11300400C948F000C9404010C948F000C948F007A
S11300500C948F000C948F000C948F000C948F00E0
S11300600C948F000C948F000C948F000C948F00D0
S11300700C948F000C948F000C948F000C948F00C0
S11300800C9440010C948F000C948F000C948F00FE
S11300900C948F000C948F000C948F000C948F00A0
S11300A00C948F000C948F000C948F000C948F0090
S11300B00C948F000C948F000C948F000C94D2023B
S11300C00C948F000C948F000C948F000C948F0070
S11300D00C948F000C948F000C948F000C948F0060
S11300E00C948F0011241FBECFEFD1E2DEBFCDBF31
S11300F012E0A0E0B2E0E0EFFBE002C005900D9258
S1130100A230B107D9F722E0A2E0B2E001C01D920B
S1130110AA34B207E1F70E94DF010C94F6050C94AF
S11301200000682381E009F480E00895F8941092B7
S113013080008DE08093810082E080936F0022E153
S11301403AE730938900209388001092900099E058
S1130150909391008093710080E49FE190939900C3
S113016080939800789480E090E00895609106026E
S1130170709107028091080290910902089590936A
S11301802E0280932D0280E090E0089583B160E810
S11301900E94910091E0811101C090E0892F90E0CC
S11301A008958091050290E00895EBE6F0E08081E7
S11301B085608083E8E6F0E080818160808380E070
S11301C090E008950E94D5000E94960080E090E09F
S11301D0089581E08093040208958091040290E0E0
S11301E00895809103020895809303020895109264
S11301F0020208958091020290E008958091050220
S11302008F5F8093050208951F920F920FB60F928D
S113021011242F933F934F935F936F937F938F9307
S11302209F93AF93BF93EF93FF9380910A029091B2
S11302300B02A0910C02B0910D020196A11DB11DFB
S113024080930A0290930B02A0930C02B0930D02C8
S1130250E0912B02F0912C02309709F00995FF915F
S1130260EF91BF91AF919F918F917F916F915F912A
S11302704F913F912F910F900FBE0F901F901895A3
S11302801F920F920FB60F9211242F933F934F9307
S11302905F936F937F938F939F93AF93BF93EF93EA
S11302A0FF938091060290910702A0910802B091F9
S11302B009020196A11DB11D8093060290930702C5
S11302C0A0930802B0930902E0912D02F0912E024E
S11302D0309709F00995FF91EF91BF91AF919F91EC
S11302E08F917F916F915F914F913F912F910F90DB
S11302F00FBE0F901F9018951F920F920FB60F927A
S113030011242F933F934F935F936F937F938F9316
S11303109F93AF93BF93EF93FF9383B161E00E94E8
S1130320910090910002891781F083B161E00E94ED
S11303309100811103C081E0809302029091030235
S113034081E0911180E08093030283B164E00E9414
S11303509100909101028917A9F083B164E00E9491
S1130360910081110FC089B160E20E949100811156
S113037009C080910502882329F0809105028150EB
S11303808093050283B164E00E949100809301028E
S113039083B161E00E94910080930002FF91EF918C
S11303A0BF91AF919F918F917F916F915F914F9189
S11303B03F912F910F900FBE0F901F9018950E94A0
S11303C0E2000E9489050E949F040E94C6020E94C6
S11303D0ED00892BE1F70E9494050E94B0040E946D
S11303E0CB02F5CFF89484B1886084B984B182607B
S11303F084B9E7E0F1E0808180688083808188604F
S11304008083808182608083109220018CE08093BD
S1130410210184E39CE0909329018093280182E0E8
S1130420809373007894089580911402909115023A
S11304308130910539F02091180230911902213050
S1130440310521F483B18A6085B90895892B61F45B
S11304508091160290911702892B31F4232B21F4F9
S1130460109229021092280283B1877F85B90895DA
S11304708091280290912902019791F080911402B1
S113048090911502019761F08091160290911702E4
S1130490019731F08091180290911902019771F43B
S11304A081E090E0909329028093280280910601D4
S11304B08068809308010E941402089583B1857FA7
S11304C0886085B9809106018F778093080108952B
S11304D080911C0290911D028130910539F0209188
S11304E02002309121022130310531F4809106013E
S11304F08A60809308010895892B61F480911E021B
S113050090911F02892B31F4232B21F4109227029E
S11305101092260280910601877F80930801089536
S11305208091260290912702019791F080911C02FC
S113053090911D02019761F080911E0290911F021B
S1130540019731F08091200290912102019749F4A2
S113055081E090E090932702809326020E94680233
S1130560089580910601857F88608093080108952D
S113057083B1877F85B9A6E0B1E08C918F77E8E0FD
S1130580F1E080838C91877F808308950E94F2013B
S113059080E090E008950E9438020E94900280E07A
S11305A090E008951F920F920FB60F9211248F932B
S11305B09F938091090184FD07C081E090E09093AE
S11305C015028093140204C01092150210921402B2
S11305D08091090186FD07C081E090E090931702A5
S11305E08093160204C010921702109216021E99EC
S11305F007C081E090E0909319028093180204C030
S113060010921902109218024C9907C081E090E0F0
S113061090931D0280931C0204C010921D0210923C
S11306201C024E9907C081E090E090931F028093D2
S11306301E0204C010921F0210921E024F9907C09E
S113064081E090E0909321028093200204C01092F4
S11306502102109220029F918F910F900FBE0F9054
S11306601F9018951F920F920FB60F9211248F931B
S113067083B1877F85B9809106018F7780930801C4
S11306808F910F900FBE0F901F9018951F920F928D
S11306900FB60F9211248F9380910601877F809368
S11306A008018F910F900FBE0F901F901895109214
S11306B0430210923502109232021092310280E00D
S11306C090E00E94F40010923402109233021092CF
S11306D04402109245021092460210924702E7E04B
S11306E0F1E0808184608083808180648083EAE09B
S11306F0F1E080818260808384B18E7F84B98081BF
S11307008B7F80838AB1877F8AB905C0E8E0F1E0F6
S11307108081846080838091090164E00E9491005B
S11307208111F4CFE8E0F1E080818B7F8083109227
S1130730350280E090E008950F931F930E94F1002A
S11307408823A9F180914302811131C08091330241
S113075090913402892B59F580913502803180F4CF
S11307600E94F100882361F0E8E0F1E08081846078
S1130770808381E090E0909332028093310276C0CE
S113078080913502803108F471C00E94F100882301
S113079009F46CC0E8E0F1E080818B7F808381E024
S11307A0809343020E94FE000E94F7005FC00E94F3
S11307B0F10081115BC080914302882309F456C083
S11307C08091330290913402892B09F04FC0E8E004
S11307D0F1E08081846080838091090164E00E945B
S11307E09100811143C01092430210923502E8E057
S11307F0F1E080818B7F80830E94B6006093440285
S1130800709345028093460290934702809144027C
S113081090914502A0914602B091470288519C4FA5
S1130820AF4FBF4F80933B0290933C02A0933D0295
S1130830B0933E028091440290914502A0914602F9
S1130840B091470288519C4FAF4FBF4F80933702FE
S113085090933802A0933902B0933A0281E090E079
S11308609093340280933302809336020E94B60040
S113087000913702109138022091390230913A02E6
S1130880601771078207930750F0809133029091AB
S11308903402892B21F0109234021092330280E04A
S11308A090E01F910F9108951092360210923F022A
S11308B010924002109241021092420210923B02A6
S11308C010923C0210923D0210923E02E8E0F1E0E8
S11308D080818F7B808380E090E008950F931F9345
S11308E00E94B60000913B0210913C0220913D020F
S11308F030913E02601771078207930780F0809160
S11309003602882361F010923602E8E0F1E080813B
S11309108F7B808310923202109231020BC080913F
S1130920310290913202892B29F0E8E0F1E08081D4
S11309308064808380E090E01F910F910895F89483
S1130940E9E6F0E08081806C80838DB388608DBBA4
S11309500E9457030E945404789480E090E0089524
S11309600E949C030E946E0480E090E00895E8E0F9
S1130970F1E080818B7F808380818F7B808380E026
S113098090E008951F920F920FB60F9211248F9347
S1130990809135028F5F809335028F910F900FBE47
S11309A00F901F901895909349028093480280E01D
S11309B090E00895E9E6F0E08081836080838DB360
S11309C081608DBB8EE795E00E94D30480E090E0C7
S11309D00895EAE0F1E0808182608083808188600C
S11309E080838081806280830895EBE0F1E08081E0
S11309F0826080830895EBE0F1E080818D7F8083C5
S1130A000895CF93DF930E94C600EC0181309105D5
S1130A10D1F40E94B60024EF31E040E050E00E949F
S1130A20D40520FD03C00E94F50431C00E94B60025
S1130A3024EF31E040E050E00E94D40520FF27C0BD
S1130A400E94FB0424C0892B11F580912A02813075
S1130A5011F40E94FB040E94B60020E137E240E05A
S1130A6050E00E94D405672B682B692B11F40E9477
S1130A70F5040E94B60024E039E240E050E00E9410
S1130A80D405672B682B692B11F40E94FB04C093D7
S1130A902A02DF91CF9108958091090161E00E94BB
S1130AA09100882349F0EBE0F1E08081806280834B
S1130AB08081877F808308958091090161E00E948D
S1130AC09100811108C0EBE0F1E0808188608083AF
S1130AD080818F7D8083089584B1806284B984B1DC
S1130AE0806884B985B1806285B9089585B18068CC
S1130AF085B9089585B18F7785B908950E947A05DF
S1130B000E94B8020E94B7040E94E90080E090E0CD
S1130B1008950E946C050E94E9040E94DA0481E0B1
S1130B2095E00E94BF0008950E944C050E94D100E8
S1130B301816190624F00E94FA00892B49F083B193
S1130B4060E80E949100811105C00E947605089515
S1130B500E947A0508951F920F920FB60F921124E6
S1130B602F933F934F935F936F937F938F939F93B1
S1130B70AF93BF93EF93FF93E0914802F091490242
S1130B80309709F00995FF91EF91BF91AF919F9133
S1130B908F917F916F915F914F913F912F910F9022
S1130BA00FBE0F901F901895A1E21A2EAA1BBB1B13
S1130BB0FD010DC0AA1FBB1FEE1FFF1FA217B30725
S1130BC0E407F50720F0A21BB30BE40BF50B661F3B
S1130BD0771F881F991F1A9469F7609570958095FF
S1130BE090959B01AC01BD01CF010895F894FFCF0E
S1050BF00101FD
S9030000FC
